:020000040800F2
:10000000181F002099010008E7200008051E0008BD
:10001000E520000899030008D92600080000000028
:1000200000000000000000000000000001010008C6
:10003000D303000800000000450100084522000825
:10004000B3010008B3010008B3010008B3010008C0
:10005000B3010008B3010008B3010008B3010008B0
:10006000B3010008B3010008B30100089D030008B4
:10007000B3010008B3010008B3010008B301000890
:10008000B3010008B3010008B3010008B301000880
:10009000B3010008B3010008B3010008B301000870
:1000A000B3010008B3010008B3010008B301000860
:1000B000B3010008B3010008D5220008B30100080D
:1000C000B3010008B3010008B3010008B301000840
:1000D000B3010008B3010008C1260008CD260008BE
:1000E000B3010008B3010008B3010008DFF80CD029
:1000F00000F09EF800480047A5280008181F0020BF
:10010000224B19680868B0E8F00F80F30988BFF344
:100110006F8F4FF0000080F311884EF00D0E704786
:100120000000000006480068006880F3088862B696
:1001300061B6BFF34F8FBFF36F8F00DF00BF00BF0B
:1001400008ED00E0EFF30980BFF36F8F0F4B1A68E3
:1001500020E9F00F106008B54FF0500080F31188CF
:10016000BFF34F8FBFF36F8F03F0BAFA4FF0000069
:1001700080F31188BDE8084019680868B0E8F00FFE
:1001800080F30988BFF36F8F704700BF30000020F5
:10019000EFF3058070470000064880470648004797
:1001A000FEE7FEE7FEE7FEE7FEE7FEE7FEE7FEE727
:1001B000FEE7FEE7D1220008ED00000840EA010357
:1001C0009B0703D009E008C9121F08C0042AFAD20D
:1001D00003E011F8013B00F8013B521EF9D27047D1
:1001E000D2B201E000F8012B491EFBD27047002279
:1001F000F6E710B513460A4604461946FFF7F0FF26
:10020000204610BD30B50B460146002020220124B7
:1002100009E021FA02F59D4205D303FA02F5491BD4
:1002200004FA02F52844151EA2F10102F1DC30BDEA
:10023000064C074D06E0E06840F0010394E8070033
:1002400098471034AC42F6D3FFF754FF2C42000815
:100250004C42000870B5044600688168C943C9076C
:1002600017D1816821F00101816000F007FD05468A
:100270000AE000BF00F002FD401B022804D92068FC
:100280008068C043C00706D020688068C043C007AC
:10029000F0D0002070BDA06A40F01000A062E06ABB
:1002A00040F00100E062012070BD10B50146406AD7
:1002B000826A12F0500F05D0006A026BBDE8104050
:1002C00008461047816A41F40071816201688968BB
:1002D000C1F3424107290CD1017B51B9816A21F454
:1002E00080718162816AC90403D4816A41F001018D
:1002F000816200F0EFF810BD10B5406A816A41F0EC
:1003000040018162C16A41F00401C16200F0E4F879
:1003100010BD10B5406A00F0DEF810BDF8B500263B
:100320000446009600688168C943C9072DD08168DA
:1003300041F001018160164816490068B0FBF1F0F8
:1003400000E0401E00900028FBD100F097FC05461D
:1003500016E000BF00F092FC401B022810D9206874
:100360008068C043C0070BD0A06A40F01000A062B4
:10037000E06A40F00100E06284F824600120F8BDEA
:1003800020688068C043C007E4D10020F8BD0000A9
:100390002C00002040420F00FEE70000014800F062
:1003A00067BA0000E400002030B590F84050012406
:1003B000AC40C56B6C60046863604368102B0368D5
:1003C00003D099600068C26030BD9A600068C16067
:1003D00030BD704770470000F8B50024009490F8D5
:1003E00024202546012A12D0012280F824204A68C0
:1003F0001F23072A0DD20668776B521E02EB82027A
:1004000093409F430B6893401F43776319E002209A
:10041000F8BD06680D2A0AD2376BD21F02EB8202A2
:1004200093409F430B6893401F43376309E0F76A8B
:100430000D3A02EB820293409F430B6893401F43A7
:10044000F7620A68072306680A2A0AD3F7680A3A95
:1004500002EB420293409F438B6893401F43F76037
:1004600008E0376902EB420293409F438B68934058
:100470001F4337610A68102A01D0112A20D1124B7C
:1004800002689A4217D193681B0219D4936843F407
:10049000000393600968102912D10C490C4A0968BD
:1004A000B1FBF2F101EB8101490000E0491E00912E
:1004B0000029FBD104E0816A41F02001816201241E
:1004C00080F824502046F8BD002401402C00002074
:1004D00040420F0070477047704700002DE9F0411F
:1004E0004FF0000704003D467ED0A06A002628B9E0
:1004F000E66284F82460204600F07EF82046FFF78C
:10050000A9FEA16AC90600D420B1A06A40F010007B
:10051000A06269E0A16A21F4885141F00201A16260
:100520006268E169237B0A4347EA43010A43A16801
:100530004FF48077B94209D0012907D05FF000015C
:1005400094F814C0BCF1010F02D00AE03946F7E775
:10055000F3B1A36A43F02003A362E36A43F001030B
:10056000E3622368D3F804C02CF4694C4CEA010C14
:10057000C3F804C021688B68DFF870C003EA0C037D
:1005800013438B60A168B9420BD0012909D00CE05C
:10059000DFF85CC0A3690CEB43330B4343F4006109
:1005A000DFE7218A0D05A5F580152168CB6A23F4C4
:1005B00070032B43CB62216889680E4B194091422E
:1005C00008D1E662A16A21F0020141F00101A162B5
:1005D000BDE8F081A06A20F0020040F01000A062A7
:1005E000E06A40F00100E0620120F1E7FDF7E1FF81
:1005F00000E0FFFFFE0E1FFF70B586B00025064627
:1006000000950195029503950068194988422DD1FE
:100610001849886940F400708861886900F40070A6
:100620000490886940F0040088618869694600F098
:10063000040004900320009001900F4800F028FA75
:100640000F4C0E48C4E900058020C4E90250400068
:100650002061C00060612020C4E90605204600F04A
:10066000B1F908B1FFF7B6FE3462666206B070BD3C
:100670000024014000100240000801400800024030
:10068000E40000202DE9F047894604463B49006814
:100690003B4F0E1D9046884201D0B84207D13068CA
:1006A00010F4702F03D001252846BDE8F08794F898
:1006B000240001280CD0012084F824002046FFF7F4
:1006C0002DFE05004FF0000004D084F82400EBE775
:1006D0000220EAE7A16A40F60162914341F4807189
:1006E000A1622168B94218D1326812F4702F14D077
:1006F000A16A41F48011A1623168490505D5A16A5A
:1007000021F4005141F48051A162A16AC9040AD5C3
:10071000E16A21F00601E16206E0A26A22F4801299
:10072000A2624968E9E7E06284F82400216A15487A
:100730008862216A1448C862216A144808632168E3
:100740006FF0020008602068816841F48071816068
:10075000216843464A464C31206A00F061F920681E
:100760008168C1F342410729816803D041F48011B7
:10077000816099E741F4A001FAE7000000240140FC
:1007800000280140AB02000813030008F90200082A
:1007900010B590F821100022022905D004218163B0
:1007A00080F82020012010BD01680B6823F00E03A3
:1007B0000B6001680B6823F001030B6090F8403078
:1007C000C46B012101FA03F3636080F8211080F803
:1007D0002020104610BD000010B590F82110002414
:1007E000022903D00421816301243DE001680A68E5
:1007F00022F00E020A6001680A6822F001020A6013
:100800001A4A0168914201D1012121E0174A1432AC
:10081000914201D110211BE0144A2832914201D1AA
:10082000891515E0114A3C32914201D189140FE03B
:100830000E4A5032914202D14FF4803108E00B4A07
:100840006432914202D14FF4801101E04FF0807187
:10085000064A083A5160012180F82110002180F8F1
:100860002010416B01B18847204610BD08000240AE
:100870002DE9F05FC16B0C6801680B68D0F840C0CF
:10088000042202FA0CF2494DDFF824A1494E4A4FE6
:10089000DFF828B1DFF828E122422CD05A072AD508
:1008A0000A68920603D40A6822F004020A6001680A
:1008B000A94201D1042219E0514501D1402215E09D
:1008C000B14202D14FF4806210E0B94202D14FF43C
:1008D00080420BE0594502D14FF4802206E0714579
:1008E00002D14FF4800201E04FF080622F490839B5
:1008F0004A60C16A3BE04FF0020808FA0CF818EAB7
:10090000040F4FF000094FF0010235D05FEA837801
:1009100032D50B689B0605D40B6823F00A030B60E5
:1009200080F821200168A94201D1022219E0514535
:1009300001D1202215E0B14202D14FF4007210E043
:10094000B94202D14FF400520BE0594502D14FF4A5
:10095000003206E0714502D14FF4001201E04FF081
:100960000072124908394A6080F82090816A002993
:100970001AD0BDE8F05F0847082505FA0CF52542B6
:1009800012D01B0710D50B6823F00E030B6090F8F4
:100990004010C36B02FA01F15960826380F8212094
:1009A00080F82090016BE2E7BDE8F09F080002406C
:1009B0001C00024030000240440002405800024047
:1009C0006C00024030B528B308C8134914221944FA
:1009D000B1FBF2F18900C1631049816302214177C3
:1009E0001A6843F6F0718A43D0E900142143D0E934
:1009F00002452C432143046921434469214384690E
:100A0000214311431960002141630122427701779C
:100A1000084630BD012030BDF8FFFDBF0000024098
:100A200070B5044690F82000002501280CD0012064
:100A300084F8200094F821600020012E06D084F86C
:100A400020000225284670BD022070BD022684F8D1
:100A50002160A0632068066826F001060660204633
:100A6000FFF7A2FCE06A00282068016802D041F08C
:100A70000E0106E021F0040101602068016841F0E8
:100A80000A0101602068016841F001010160D9E7B5
:100A90002DE9F84FDFF8B891002409F1040A0AF1B2
:100AA000040B23460F270BF1040EC9E00125A540D6
:100AB0002A40AA427DD1674ED1F804C0ACEB0608AB
:100AC000B44532D014DCBCF1030F3AD009DCBCF1E0
:100AD000000F2AD0BCF1010F1CD0BCF1020F31D1A4
:100AE0001DE0BCF1110F17D0BCF1120F2AD119E093
:100AF000B8F5881F19D006DCB8F5803F15D0B8F5D9
:100B0000801F1FD111E0B8F5001F0ED0B8F5041FEB
:100B100018D10AE0CB6815E0CB681B1D12E0CB684A
:100B200008330FE0CB680C330CE08B682BB1012B42
:100B30004FF0080303D0456104E0042302E005619F
:100B400000E00023FF2A01D8064601E000F1040678
:100B50004FEA840501D9A5F12005D6F8008007FAEF
:100B600005FC28EA0C0803FA05F548EA0508C6F86A
:100B700000804D68ED0062D5374DAE6946F0010644
:100B8000AE61AD6924F0030605F001050095334D13
:100B900006EB050CDCF80850A607360F07FA06F836
:100BA00025EA0805DFF8B880404503D14FF000087A
:100BB00017E044E0DFF8AC80404502D14FF0010877
:100BC0000FE0DFF8A480404502D14FF0020808E0B2
:100BD000DFF89880404502D14FF0030801E04FF064
:100BE000040808FA06F848EA0508CCF808804D68B9
:100BF000D9F80060ED034D4601D5164300E0964359
:100C00002E604D68DAF80060AD03554601D51643F5
:100C100000E096432E604D68DBF80060ED025D4613
:100C200001D5164300E096432E604D68DEF8006063
:100C3000AD02754601D5164300E096432E60641C54
:100C40000D682A46E5407FF431AFBDE8F88F00001B
:100C5000000401400000111000100240000001409B
:100C600000080140000C0140001001400014014048
:100C70000AB1016170470904FBE700000148806880
:100C8000704700002000002002488168027811446B
:100C90008160704720000020074810B5016841F0CE
:100CA00010010160032000F08FF8002000F006F82A
:100CB00000F03EF8002010BD0020024000B50146C3
:100CC00087B000221E2000F05FF81E2000F04EF8D2
:100CD0001348C16941F00401C161C06905A900F070
:100CE00004000690684600F08DF900F0ABF90D495C
:100CF0004000B0FBF1F10D480B4A491E0260416013
:100D000040F2E7320021C0E90321816000F0E0FBFE
:100D100010B1012007B000BD044800F007FCF9E75E
:100D20000010024040420F0000080040F80100207F
:100D30000C4808B5816941F001018161816901F0C8
:100D400001010091C16941F08051C161C06900F0A9
:100D5000805000900448416821F0E06141F000714A
:100D6000416008BD0010024000000140002809DB7E
:100D700000F01F02012191404009800000F1E020B5
:100D8000C0F8001170470000F0B40E4B1B680C4611
:100D9000C3F30223C3F10705042D00D90425191D4F
:100DA000072901D2002300E0DB1E012606FA05F127
:100DB000491E214099409E40761E16403143F0BCAA
:100DC00001F0A0BC0CED00E0064900F00702086845
:100DD0004FF6FF03184040EA0220034A1043086020
:100DE000704700000CED00E00000FA052DE9F84323
:100DF00005460078354CC00754D0E0690026C00095
:100E000008D4E06940F08050E061E069012600F01C
:100E1000805000902E480168C90512D401688046B0
:100E200041F480710160FFF729FF074605E000BF2C
:100E3000FFF724FFC01B642823D8D8F80000C005A2
:100E4000F6D5206A10F4407021D0A98801F44071D1
:100E500081421CD0206A1F49012220F440700A60A0
:100E600000220A602062C00711D0FFF707FF074683
:100E700041F2883808E000BFFFF700FFC11B414581
:100E800002D90320BDE8F883206A8007F4D5206AE0
:100E9000696820F44070084320621EB1E06920F0C8
:100EA0008050E0612878800705D56068A96820F443
:100EB0004040084360602878C00605D56068E9684E
:100EC00020F48000084360600020DBE7001002404F
:100ED00000700040400442422DE9F0470F460500F3
:100EE00061D0434E306800F00700B84209D2306844
:100EF00020F0070038433060306800F00700B84247
:100F000051D128683B4C810712D5400703D5606852
:100F100040F4E06060602878000703D5606840F422
:100F2000605060606068A96820F0F000084360606D
:100F30002878C00728D06868012810D021680228C6
:100F400010D0890700292EDA616821F003010143DE
:100F50006160FFF793FE804641F288390DE0216819
:100F60008903EFE78901EDE7FFF788FEA0EB0801B1
:100F7000494502D90320BDE8F0876068696800F040
:100F80000C00B0EB810FEFD1306800F00700B842E1
:100F90000BD9306820F0070038433060306800F02B
:100FA0000700B84201D00120E5E72878400705D5C1
:100FB0006068E96820F4E060084360602878000712
:100FC00006D56068296920F4605040EAC10060607D
:100FD00000F058F86168084AC1F30311515CC84039
:100FE0000649086006480068FFF768FE0020C2E76F
:100FF0000020024000100240D84100082C000020D0
:10100000240000200F2202600C4A536803F00303FF
:101010004360536803F0F0038360536803F4E063B4
:10102000C36052684FF4E06303EAD20202610448ED
:10103000006800F0070008607047000000100240E0
:10104000002002400448054900684968044AC1F389
:101050000221515CC84070472C0000200010024063
:10106000E84100080448054900684968044AC1F39A
:10107000C221515CC84070472C0000200010024083
:10108000E841000812A185B00FC98DE80F0014A037
:10109000144A006804905168134801F00C03042BB3
:1010A00010D0082B0ED1C1F38343C9031DF80300F0
:1010B0000AD5516804AAC1F34041515C0A4A504321
:1010C000B0FBF1F005B0704708494843FAE700006B
:1010D00002030405060708090A0B0C0D0E0F101079
:1010E000010200000010024000127A0000093D00D9
:1010F0002DE9F84F040070D02078C04DC00749D0CA
:101100006868C0F38100012807D06868C0F38100D7
:10111000022809D16868C00306D52868800339D53C
:1011200060680028E7D035E06068B0F5803F0BD0FC
:1011300010B1B0F5A02F11D0286820F480302860BD
:10114000286820F4802002E0286840F4803028607D
:10115000606890B1FFF792FD06460AE0286840F407
:1011600080202860F0E700BFFFF788FD801B64281F
:1011700073D828688003F7D50CE0FFF77FFD06469B
:1011800005E000BFFFF77AFD801B6428F0D82868CF
:101190008003F7D420789A4E80074FF001094FF072
:1011A000000839D5686810F00C0F07D06868C0F3E4
:1011B0008100022809D16868C00306D42868800726
:1011C00014D52069012808D110E02069B0B1C6F813
:1011D0000090FFF753FD074605E00AE1FFF74EFDDB
:1011E000C01B0228C4D828688007F7D52868616921
:1011F00020F0F80040EAC10028600DE0C6F8008049
:10120000FFF73CFD074604E0FFF738FDC01B02284E
:1012100023D828688007F7D4207800072CD5794890
:10122000A169D9B1C0F80090FFF728FD074604E096
:10123000FFF724FDC01B02280FD8686A8007F7D586
:1012400071484FF4FA510068B0FBF1F0009000BF14
:101250000098411E0091FAD20EE080E0C0F80080B4
:10126000FFF70CFD074604E0FFF708FDC01B02284E
:1012700075D8686A8007F7D42078400760D5E86998
:101280000027C00008D4E86940F08050E861E869B0
:10129000012700F0805000905C480168C90513D414
:1012A0000168834641F480710160FFF7E7FC8246E4
:1012B00006E000BFFFF7E2FCA0EB0A0064284ED86E
:1012C000DBF80000C005F5D5E06801280AD008B1B8
:1012D000052813D0286A20F001002862286A20F02F
:1012E000040002E0286A40F001002862E06841F250
:1012F000883B98B1FFF7C2FC82460BE0286A40F0B9
:1013000004002862EEE700BFFFF7B8FCA0EB0A017B
:1013100059455AD8286A8007F6D50CE0FFF7AEFC8D
:10132000824605E0FFF7AAFCA0EB0A0159454CD81C
:10133000286A8007F6D41FB1E86920F08050E86180
:10134000E06988B36968C1F38101022944D00228A9
:10135000C6F8608004D0FFF791FC044638E034E022
:10136000FFF78CFC074604E0FFF788FCC01B02284F
:101370002BD828688001F7D4206AB0F5803F05D1CA
:101380006868A16820F4003008436860D4E9080167
:101390000843696821F4741108436860C6F86090D6
:1013A000FFF76CFC044606E025E000BFFFF766FC93
:1013B000001B022809D828688001F7D51BE000BF70
:1013C000FFF75CFC001B022802D90320BDE8F88F60
:1013D00028688001F4D40EE00128F7D06868226AFA
:1013E00000F48031914204D1616A00F470108842A7
:1013F00001D00120EAE70020E8E7000000100240E9
:1014000000004242800442422C0000200070004054
:101410007047704710B590F83C20012A22D0012275
:1014200080F83C20CA688C6822F4407222434C68E1
:1014300022F4806222430C6822F4006222430C6989
:1014400022F4805222434C6922F400522243C9699B
:10145000002322F480420A4301684A6480F83C3049
:10146000002010BD022010BD70B590F83C20012A6C
:1014700026D0012480F83C40022280F83D200368F9
:101480005A689D6822F070060A6832435A600D4B14
:1014900002689A4208D0B2F1804F05D00A4B9A42B6
:1014A00002D00A4B9A4204D1496825F080031943BF
:1014B000916080F83D40002180F83C10084670BDE6
:1014C000022070BD002C01400004004000080040D4
:1014D00010B5040003D094F83D0010B107E00120DE
:1014E00010BD002084F83C00204600F01EF80220C9
:1014F00084F83D00211D206800F0F2FE012084F8F0
:10150000460084F83E0084F83F0084F8400084F8E8
:10151000410084F8420084F8430084F8440084F8D1
:10152000450084F83D00002010BD704790F83D1044
:10153000012901D001207047022180F83D10016887
:10154000CA6842F00102CA6000680B49884208D0AC
:10155000B0F1804F05D00949884202D0084988423D
:1015600004D1816801F00701062903D0016841F028
:101570000101016000207047002C01400004004080
:1015800000080040704770B50446006801694FF0DC
:101590000005C943890715D4C168C943890711D417
:1015A000E91E0161012020772068806980072046BC
:1015B00002D0FFF7E7FF04E000F0BEF8204600F09D
:1015C00061F9257720680169C943490717D4C168C3
:1015D000C943490713D46FF0040101610220207749
:1015E0002068806910F4407F204602D0FFF7CAFFD0
:1015F00004E000F0A1F8204600F044F925772068C7
:101600000169C943090716D4C168C943090712D43F
:101610006FF008010161042020772068C06980070D
:10162000204602D0FFF7AEFF04E000F085F8204628
:1016300000F028F9257720680169C943C90617D445
:10164000C168C943C90613D46FF0100101610820B5
:1016500020772068C06910F4407F204602D0FFF751
:1016600091FF04E000F068F8204600F00BF92577C0
:1016700020680169C943C90708D1C168C943C907BE
:1016800004D1891E0161204600F04CF920680169EF
:10169000C943090609D4C168C943090605D46FF0D6
:1016A000800101612046FFF7B3FE20680169C9434C
:1016B000490609D4C168C943490605D46FF0400101
:1016C0000161204600F038F920680169C9438906A4
:1016D0000BD4C168C943890607D46FF020010161AA
:1016E0002046BDE87040FFF794BE70BD00B585B0E0
:1016F0000021009101910291039100680B498842F9
:1017000012D10B48816941F0040181618069694609
:1017100000F0040004904FF4E0600090022001907B
:1017200003900448FFF7B4F905B000BD002C014058
:101730000010024000080140704770B5044690F860
:101740003C000D4601280AD0012084F83C0042B13B
:10175000042A18D0082A2AD00C2A4DD139E00220B8
:1017600070BD206800F000FE2068816941F008012A
:1017700081612068816921F00401816120688169AB
:101780002A69114311E0206800F016FE2068816983
:1017900041F4006181612068816921F48061816187
:1017A000206881692A6941EA0221816124E0206878
:1017B00000F02EFE2068C16941F00801C161206877
:1017C000C16921F00401C1612068C1692A6911431E
:1017D00011E0206800F048FE2068C16941F4006112
:1017E000C1612068C16921F48061C1612068C1695B
:1017F0002A6941EA0221C161002084F83C0070BDE1
:1018000010B5040003D094F83D0010B107E00120AA
:1018100010BD002084F83C00204600F01FF8022094
:1018200084F83D00211D206800F05AFD012084F855
:10183000460084F83E0084F83F0084F8400084F8B5
:10184000410084F8420084F8430084F8440084F89E
:10185000450084F83D00002010BD000008B5006878
:101860000649884208D10648816941F400618161D6
:10187000806900F40060009008BD0000002C014069
:10188000001002407047000010B50446022249B122
:1018900004290ED0082913D094F84100012816D04D
:1018A000012010BD94F83E000128F9D184F83E20B3
:1018B0000FE094F83F000128F2D184F83F2008E0BF
:1018C00094F840000128EBD184F8402001E084F82E
:1018D00041200122206800F039FD0F49206888422C
:1018E00003D1426C42F4004242642068884208D02E
:1018F000B0F1804F05D00949884202D0084988429A
:1019000004D1816801F00701062903D0016841F084
:1019100001010160002010BD002C014000040040C6
:101920000008004000680349884201D1FFF7ACB9C4
:101930007047000000080040704770477047000083
:10194000F8B5026804461068D168536910F00F0FAB
:101950004FF0000553D003F0010601F490773743B0
:101960005FD0C20705D0CA0503D5226C42F0010240
:101970002264420705D5DA0703D0226C42F0020246
:101980002264820705D5DA0703D0226C42F00402F4
:101990002264020707D501F02002324303D0226CF3
:1019A00042F008022264226C002A34D0800604D55A
:1019B000880602D5204600F099FD20684069216C18
:1019C000C0F38010090700D430B3204600F076FD44
:1019D0002068416949061BD5416921F040014161F8
:1019E000A06BA8B158494163A06BFEF7F5FE002833
:1019F00011D0A06B416B01B0BDE8F04008478306F1
:101A00000FD58B060DD52046BDE8F84000F06EBD21
:101A10002046FFF793FFF8BD2046FFF78FFF2564B0
:101A2000F8BD266B2023012E52D1C60650D5CE0616
:101A30004ED5106850680090506940062AD5A16BB9
:101A4000086840680004000CEAD0A68D8642E7D9F9
:101A5000E0858869202818D0D06820F48070D06094
:101A60002068416921F0010141612068416921F04C
:101A70004001416184F83E3025632068C16821F04F
:101A80001001C160A06BFEF783FEA08DE18D401AAE
:101A900081B219E0A08DE18D401A81B2E08D00285D
:101AA000BED00029BCD0D06820F49070D0602068EF
:101AB000426922F00102426184F83E3025632068C9
:101AC000C26822F01002C2602046FFF736FFF8BD60
:101AD00005062BD50D0629D594F83D002128F6D111
:101AE000A068B0F5805F01D12069B0B1206A411CC7
:101AF0002162216800784860E08C401E0004000CE0
:101B0000E084E4D12068C16821F08001C1602068D0
:101B1000C16841F04001C160F8BD206A0088C0F38F
:101B200008005060206A801C2062E5E74006F3D57B
:101B30004806F1D5D168204621F04001D16084F8F3
:101B40003D3000F05EF9F8BDAD24000870B504002A
:101B500004D094F83D00002510B106E0012070BDCE
:101B600084F83C50204600F023F8242084F83D00FF
:101B70002068C16821F40051C160204600F012FDC8
:101B80002068016921F4904101612068416921F0D8
:101B90002A0141612068C16841F40051C160256497
:101BA000202084F83D0084F83E00002070BD000035
:101BB00030B585B0002400940194029403942E4D16
:101BC00003682E4802210322AB4227D1C36943F4A4
:101BD0000033C361C36903F400330493836943F0A2
:101BE000040383618069264D00F004000490042002
:101BF000CDE90001039269462846FEF749FF082017
:101C0000CDE90004694628460294FEF741FF002210
:101C100011462620FFF7B8F8262029E0194DAB42DF
:101C200028D1C36943F48023C361C36903F48023CB
:101C30000493836943F0080383618069039200F091
:101C4000080004902815CDE900010F4D694628468B
:101C5000FEF71EFFE814CDE9000469462846029409
:101C6000FEF716FF002211462720FFF78DF82720E8
:101C7000FFF77CF805B030BD004400400010024082
:101C80000008014000480040000C01402DE9F84FD9
:101C9000044690F83E009A4616460D46202853D139
:101CA000FDB1F6B194F83C0001284DD0012084F834
:101CB0003C0000272764222084F83E002763FEF7BB
:101CC000DDFFA6858146E685A0684FF48058404533
:101CD00001D1206940B12E465FF0000584F83C70C8
:101CE00027E00120BDE8F88F0026F7E74B460022E9
:101CF00020212046CDF800A000F0B0FC08B1032060
:101D0000F0E726B1A06840451BD038B108E0206854
:101D10004068C0F3080025F8020B07E0206980B195
:101D20002068406800F07F0006F8010BE08D401E3F
:101D3000E085E08D0028D9D1202084F83E000020E5
:101D4000D0E720684068EFE70220CBE7704700004B
:101D50002DE9F843044690F83D001F4616460D460F
:101D600020284CD1C5B1BEB194F83C00012846D022
:101D7000012084F83C004FF00008C4F84080212086
:101D800084F83D00FEF77AFFA6848146E684A068C9
:101D9000B0F5805F03D004E00120BDE8F88320693E
:101DA00028B12E465FF0000584F83C800EE0002646
:101DB000FAE78021204600F051FCA0B9AEB116F838
:101DC000010B21684860E08C401EE084E08C4B46AB
:101DD0004FF0000200970028EBD14FF04001204661
:101DE00000F03CFC30B10320D7E735F8020BC0F31C
:101DF0000800E6E7202084F83D000020CDE702201F
:101E0000CBE77047FEE70000FEB5002416480094BB
:101E100001941449029401608915816001250573BC
:101E20000475022606614FF460214460C161FEF72B
:101E300055FB08B1FEF7CEFA06200094CDE901501B
:101E400069460948FEF7C8FA08B1FEF7C3FACDE9BA
:101E5000005669460448FEF7BFFA002801D0FEF795
:101E6000B9FAFEBD00240140B4000020094808B5BD
:101E7000416941F0010141614069002200F0010027
:101E8000009011460B20FEF77FFFBDE808400B20B5
:101E9000FEF76CBF0010024010B50222134914482F
:101EA000FEF7F0FB134800F079FD104C114A183C86
:101EB000903A60610021104800F0B0FD0D4A60606A
:101EC0006C3A00210D4800F0A9FD0A4AA060483A8A
:101ED00000210B4800F0A2FD064AE060243A0021F0
:101EE000084800F09BFD206110BD00001800002094
:101EF000B4000020C8410008E9200008A92100081A
:101F0000D92100083D2200082DE9F04385B00024C6
:101F100021480094019402940394816941F02001C6
:101F20008161816901F020010491816941F004011E
:101F30008161816901F004010491816941F0080126
:101F400081618069DFF8548000F008004FF440455B
:101F50000490002229464046FEF78AFEDFF84090B2
:101F6000EF10002239464846FEF782FE0095022611
:101F700001250396CDE9015469464046FEF788FDE8
:101F800000970396CDE9015469464846FEF780FD67
:101F900005B0BDE8F083000000100240000C0140D5
:101FA0000008014010B592B000240F941C2168462F
:101FB0001094FEF71CF9202107A8FEF718F92C4809
:101FC0002A4901601321C0E9011442F20F71C0E9EE
:101FD000031444618461FFF713FC08B1FEF7FAF9BA
:101FE0000F940FA922481094FFF73EFA08B1FEF7AC
:101FF000F1F96020009041F28730CDE901040394AB
:10200000049405940022694619480694FFF795FB4D
:1020100008B1FEF7DFF940F6C310019004226946CB
:102020001348FFF78AFB08B1FEF7D4F940F2E1400C
:102030000190082269460E48FFF77FFB08B1FEF7C2
:10204000C9F90794089409944FF400500A94CDE913
:102050000B4007A906480E94FFF7DCF908B1FEF71C
:10206000B9F90348FFF742FB12B010BD002C014044
:10207000280100200C4810B50A4901604FF4E131F5
:102080004160002181600C22C160C0E904128161BD
:10209000C161FFF75BFD002803D0BDE81040FEF7EB
:1020A00099B910BD00440040700100200C4810B5E3
:1020B0000A4901604FF4E1314160002181600C2246
:1020C000C160C0E904128161C161FFF73FFD0028D2
:1020D00003D0BDE81040FEF77DB910BD00480040B8
:1020E000B4010020FEE770472D4DDFF8B090DFF817
:1020F000B4A04FF400684FF4805B41F663142E1DCA
:1021000040F6C317002241464846FEF7B1FD0122C2
:1021100059464846FEF7ACFD2C6000224FF4804142
:102120005046FEF7A5FD0122D1035046FEF7A0FD63
:1021300034604FF47A7000F0DBFB37604FF47A7054
:1021400000F0D6FB34604FF47A7000F0D1FB2F60C2
:102150004FF47A7000F0CCFB2C604FF47A7000F0F2
:10216000C7FB012241464846FEF782FD0022594640
:102170004846FEF77DFD012291035046FEF778FDAB
:1021800000224FF400415046FEF772FD4FF47A7082
:1021900000F0AEFB012000F0ABFBB3E7000801400C
:1021A000342C0140000C014008B561208DF800007E
:1021B0000A23012269460748FFF768FD28B90A2368
:1021C000012269460348FFF7C3FD012000F090FBA0
:1021D000EEE7000070010020134C40F2E73659276B
:1021E000A4F118054FF04E0810A11248226800F023
:1021F00075FA0A231A460F490F48FFF7A9FD206810
:10220000401EB04201D22F7009E06068401EB0420B
:1022100001D26F7003E085F8008085F8018001200D
:1022200000F066FBE0E700001800002025640D0ABE
:1022300000000000A8000020B4010020012000F0F0
:1022400057FBFBE710B5502080F31188BFF34F8F89
:10225000BFF36F8F01F0CEFD18B104494FF08050ED
:102260000860002080F3118810BD000004ED00E03C
:1022700030B593B028216846FDF7B9FF14210AA8AC
:10228000FDF7B5FF002401200F9410941194010470
:1022900012948DE8130004904FF4E010CDE908107B
:1022A000022507956846FEF723FF0F20CDE90A05B2
:1022B0006802CDE90C4002210AA80E94FEF70CFE3C
:1022C000A80311900F950FA8FEF790FD13B030BD35
:1022D000704700000148FFF756B90000F8010020E0
:1022E000F0B50268164B174C174D4FF080479842D7
:1022F00005D0B84203D0A04201D0A84203D122F0B9
:1023000070064A683243984205D0B84203D0A042D2
:1023100001D0A84203D122F44074CA6822434C6918
:1023200022F08002224302608A68C2620A688262E6
:10233000984201D10969016301214161F0BD0000AA
:10234000002C0140000400400008004010B501F0DE
:102350001F030121046A99408C430462016A9A4078
:102360001143016210BD000030B5026A22F0010283
:102370000262026A4368846924F073050C682C4386
:1023800022F002058A682A430A4DA8420BD122F0A6
:102390000805CA6823F440732A434D6922F00402F9
:1023A0001D438B692B43436084614968416302622A
:1023B00030BD0000002C014030B5026A22F010024E
:1023C0000262026A436884690D6824F4E64444EAC0
:1023D00005248D6822F0200242EA05120B4DA84226
:1023E0000ED1CD6822F0800242EA05124D6923F435
:1023F000406343EA85038D6922F0400243EA850386
:102400004360846149688163026230BD002C0140F1
:1024100030B5026A22F480720262036A4268C469BB
:1024200023F4007324F073050C682C438D6843EA91
:1024300005230C4DA8420ED1CD6823F4006343EA76
:1024400005234D6922F4405242EA05128D6923F4B6
:10245000806342EA05124260C4614968C163036255
:1024600030BD0000002C014030B5026A22F48052D9
:102470000262046A4268C3690D6823F4E64343EAD2
:1024800005238D6824F4005444EA0534064DA8421F
:1024900004D14D6922F4804242EA85124260C36150
:1024A00049680164046230BD002C014010B5406AE7
:1024B0000021C185C184FFF741FA10BD0168CA68D7
:1024C00022F49072CA6001684A6922F001024A61EE
:1024D000016B012904D10168CA6822F01002CA60A8
:1024E000202180F83E1000210163704708B590F864
:1024F0003E10222901D0022008BD82684FF480538B
:102500009A4201D1016921B1816A9A421BD04AB134
:102510000AE00268816A5268C2F308020A80816A8E
:10252000891C08E0026972B10268526802F07F02F9
:102530000A70816A491C8162C18D491E0904090C17
:10254000C18503D019E002685268F1E70168CA68E2
:1025500022F02002CA600168CA6822F48072CA6050
:1025600001684A6922F001024A61202180F83E1088
:10257000016B012903D0FFF7E9FB002008BD002112
:1025800001630168CA6822F01002CA6001680A6823
:10259000D20602D50A6849680091818DFFF7CDF90E
:1025A000EBE7000070B5044600680169E26821F4B9
:1025B0004051114301612169A068084361690843E2
:1025C0002168CA6841F20C639A430243CA602068DA
:1025D0004169A26921F44071114341611E4920689B
:1025E000884202D1FEF73EFD01E0FEF72BFD00EB35
:1025F000C00101EB0012606864218000B2FBF0F3BF
:10260000B3FBF1F36FF018067343B2FBF0F5B2FBC6
:10261000F0F605EB8305322303EB0515B5FBF1F569
:10262000B6FBF1F605F0F00505EB0615B2FBF0F68A
:10263000B2FBF0F0B0FBF1F06FF01802504306EB84
:10264000800003EB0010B0FBF1F0216800F00F00F8
:102650002844886070BD0000003801402DE9F04139
:10266000984617460E460446069D1DE0681C1BD082
:102670002DB1FEF703FBA0EB0800A84214D9206897
:10268000C16821F4D071C1602068416921F0010165
:102690004161202084F83D0084F83E00002084F849
:1026A0003C000320BDE8F0812068006836EA0000A5
:1026B00004D00020B842D9D00020F3E70120F9E788
:1026C0000148FFF73DB90000700100200148FFF705
:1026D00037B90000B4010020FEE700000FB4084B3A
:1026E00010B504A902AA039800F02CF8044602A928
:1026F000002000F0D1F8204610BC5DF814FB00006B
:10270000992800080907090E002804DB00F1E020E1
:1027100080F80014704700F00F0000F1E02080F80E
:10272000141D704702E008C8121F08C1002AFAD120
:1027300070477047002001E001C1121F002AFBD141
:10274000704700002DE9FF4F89B09B4604460025E5
:1027500006E025280BD05A460B999047641C6D1C47
:1027600020780028F5D10DB02846BDE8F08F00276D
:10277000B8460122474900E0074314F8013F203BD7
:1027800002FA03F00842F7D120782E2819D114F864
:10279000010F47F004072A280ED06FF02F0220788F
:1027A000A0F1300109290CD808EB880102EB4101A6
:1027B00000EB0108641CF2E70A98641C50F8048BD3
:1027C0000A9020780028CED0642808D0692806D046
:1027D00075281ED05A460B9990476D1C58E00A99EF
:1027E0004FF00A0901C90A91002802DA40422D215E
:1027F00002E0390504D52B218DF82010012103E0DA
:10280000F90704D02021F7E78A4608AE0DE0002141
:10281000FAE70A994FF00A0901C90A91F7E7494610
:10282000FDF7F0FC303106F8011D0028F7D1ADEBC3
:10283000060000F12009780701D44FF00108C845CF
:1028400002DDA8EB090000E000208046002706E03A
:1028500008A85A46C05D0B9990476D1C7F1C5745D0
:10286000F6DB04E030205A460B9990476D1CB8F116
:102870000001A8F10108F5DC05E016F8010B5A4645
:102880000B9990476D1CB9F10001A9F10109F4DC25
:10289000641C65E7092801000A68531C0B6010706E
:1028A00070470000FEF7F8F9FFF7E2FCFFF72CFB9A
:1028B000FFF7DCFAFFF776FBFFF7F8FBFFF7A4FA68
:1028C000FFF7D8FB00210948FEF7DEFF0421074887
:1028D000FEF7DAFF08210548FEF7D6FF00F022F8E0
:1028E000FFF7DAFA00F03AF8FEE7000028010020CE
:1028F00010B5EFF3058149B9EFF3108131B90849FB
:102900000968022905D1EFF3118111B16FF00504B7
:1029100003E0002408B100F02FFE204610BD0000A7
:1029200080000020EFF3058058B9EFF3108040B924
:1029300009490868022801D030B109E0EFF311809D
:1029400030B16FF00500704701200860002070472B
:102950004FF0FF30704700008000002010B5EFF30B
:10296000058060B9EFF3108048B90B490868022868
:1029700002D0012806D00BE0EFF3118040B16FF0D8
:10298000050010BD0220086000F05EFE002010BDB2
:102990004FF0FF3010BD00008000002070B50546EC
:1029A0004FF00004EFF30580A0BBEFF3108088BB6D
:1029B00019480068022802D1EFF3118050BB0DB115
:1029C000686800E00020C10701D0012600E0002671
:1029D00000071FD46DB1D5E9021021B1502819D3D9
:1029E0001EB1042002E020B114E0012000F009FF34
:1029F00005E00EB1042000E0012000F0F7FE040025
:102A000008D00DB1296800E0002100F07FFD0EB173
:102A100044F00104204670BD80000020F0B585B070
:102A20004FEA01034FF00004EFF305810394A1BBCB
:102A3000EFF3108189BB21490968022902D1EFF324
:102A4000118151BB48B3802618218DF8104004AD88
:102A500042B3176807B13D4697691FB139467F1EDB
:102A6000382F02D21779FF0702D0002005B0F0BD41
:102A7000576907B1BE08D2F808C0BCF1000F0DD0ED
:102A8000D4685C2C18D312693AB137B18DE80610BE
:102A90003246294601F06FF903900DE0D7685FB91F
:102AA00012694AB903AACDE90012B2B2294601F06F
:102AB00035F9012800D003940398D7E7800000205F
:102AC0002DE9F041134C0F46054666692068001D4C
:102AD00000F022FC681C07D137B12168BDE8F04145
:102AE0000D48091D00F068BC20683544B5424560BA
:102AF000216805D2A068BDE8F041091D00F044BC82
:102B00006068091D00F040FC206B854200D22563FF
:102B1000BDE8F08130000020300700202DE9F041B1
:102B2000054600F055FC2D4C2069401C20612068B2
:102B30002B4F10B1E06930B32BE0256020690128EC
:102B400027D1002606EB860007EB800000F00EFC84
:102B5000761C382EF6D3234800F008FC21481430A8
:102B600000F004FC1F48283000F000FC1D483C30F9
:102B700000F0FCFB1B48503000F0F8FB1948606087
:102B80001430A06005E02068E96AC06A884200D875
:102B90002560E06A401CE0626864E86AA1698842D6
:102BA00000D9A06100EB800007EB8000291D00F038
:102BB00003FC00F02DFCE06900280CD02068E96AD5
:102BC000C06A884207D208494FF080500860BFF3BE
:102BD0004F8FBFF36F8FBDE8F08100003000002001
:102BE00080020020E006002004ED00E038B500F08F
:102BF000EFFB104CA068C8B90F4800F0B7FB0E48B7
:102C0000143000F0B3FB0C482060143060600A4BB5
:102C100000202833009003F1500210210A2000F018
:102C200021FEA06010B105A100F070FCBDE83840A5
:102C300000F0EEBB6C00002044070020546D725180
:102C40000000000030B4026C0B46002A0BD0C168B3
:102C50001144C1604468A14201D30168C16030BC25
:102C60001846FDF7ABBA30BC70472DE9F041856BD3
:102C7000174604460026026C82B1C7B1E068FDF732
:102C80009DFAE168206C091AE1602268914202D243
:102C90006168081AE060022F16D017E02068A8B912
:102CA000606801F00BF90646002060600EE0A06845
:102CB000FDF784FA216CA0680844A060616888422E
:102CC00004D32068A06001E005B16D1E6D1CA563F2
:102CD0003046BDE8F08110B5044690F8590058B16F
:102CE00001280CD002280FD0502080F31188BFF3A8
:102CF0004F8FBFF36F8FFEE7206B00F09DFB2046E8
:102D0000BDE8104000F098BB10BD000010484FF423
:102D10004061420706D0C01D0D4920F00700411A4E
:102D2000C1F540610B4A00230144C2E900030839A0
:102D3000103A21F0070111604B600B600B1AC0E9DB
:102D4000001393604FF000405360D0607047000064
:102D5000140F002094000020144E154CA6F29C473E
:102D60004FF08058DFF84C9012E000BF00F030FBCD
:102D7000F068C568281D00F0CFFA2069401E206168
:102D8000E068401EE06000F043FB2846FFF7A3FF29
:102D9000E0680028EAD138680128F9D9C9F800802C
:102DA000BFF34F8FBFF36F8FF2E700001C070020C7
:102DB0003000002004ED00E0002807D00021416031
:102DC00001600B460A46C16000F0C4BD70470000B8
:102DD00070B51D46049C51B1C4F80020C4E90F0130
:102DE0000121204600F072FD84F84C5070BD246033
:102DF000F4E72DE9F0470E46DDE9098417468246DF
:102E000091009946089DA522206BFDF7E9F96FF026
:102E10000301206B01EB8701084420F007077807C6
:102E200007D0502080F31188BFF34F8FBFF36F8F0F
:102E3000FEE72218315C82F83410315C11B1401C7D
:102E40001028F6D3002684F84360382D00D33725A8
:102E5000E562C4E91356201D00F093FA04F118004E
:102E600000F08FFA2461C5F138006462A0616665E4
:102E700084F858604A465146384600F03BFA2060D4
:102E8000B8F1000F01D0C8F80040BDE8F08700009D
:102E900030B5114900E011460A688242FBD34B6805
:102EA0005C18844203D1406818444860084643686F
:102EB0001C18944209D1084C103C2468A24209D045
:102EC00052681A4442600A6812680260814200D067
:102ED000086030BD0460F9E79400002070B500245C
:102EE00041600B4D0061914206D8D11A826991422E
:102EF00006D2011D686807E09A4203D2994201D3C5
:102F0000012403E0011D286800F03EFA204670BD50
:102F10006C00002010B5044600F05AFAA06B28B1EE
:102F20005FF0000400F074FA204610BD0124F9E7B8
:102F300030B589B0304D55E00498002806DADDE957
:102F40000601059A9047049800284BDB069C6069AF
:102F500010B1201D00F0E0F902A800F0B9F8024617
:102F600004980A283ED2DFE800F00505053D263723
:102F700005053D260598A169034601442046FFF753
:102F8000ADFF00B3616A20468847E069012829D176
:102F9000002000900598A169002342181946204698
:102FA00001F096F878B9502080F31188BFF34F8F65
:102FB000BFF36F8FFEE70598A06128B18118134613
:102FC0002046FFF78BFF0DE0502080F31188BFF300
:102FD0004F8FBFF36F8FFEE794F82C0010B9204697
:102FE00000F02AFA002204A9A86800F0C1FD002818
:102FF000A2D109B030BD00006C0000202DE9FC41D9
:103000000F46054600F064FB01A800F061F8044695
:10301000019818B100F0CAFFBDE8FC81224EAFB1A3
:1030200070680068A8B30027291B3A46B06800F012
:1030300081FA00F0BBFF0028EED11C494FF0805010
:103040000860BFF34F8FBFF36F8FE5E7A542EBD862
:1030500000F0ACFF30682746C068C468201D00F04F
:103060005BF9E069012810D1A0692B4641193A4665
:103070002046FFF733FF40B1002003460146009091
:103080002A46204601F024F820B1616A204688478C
:10309000C2E707E0502080F31188BFF34F8FBFF3E2
:1030A0006F8FFEE70127BFE76C00002004ED00E012
:1030B00006484168096829B14168C968C968496812
:1030C000016370474FF0FF31FAE700003000002045
:1030D00070B5054600F088FE064E0446306984420D
:1030E00003D200F009F8012000E00020286020460B
:1030F000346170BD6C000020F8B5194D1FE0C06848
:10310000C4680668201D00F007F9616A20468847F8
:10311000E069012813D1A0693044B04206D9246186
:103120006060211D286800F02FF908E000200346A8
:10313000014600903246204600F0CAFF38B12868A8
:1031400001680029DBD16968C5E90010F8BD50208D
:1031500080F31188BFF34F8FBFF36F8FFEE700003E
:103160006C00002008484068401C4FF0500080F37D
:10317000118804D0BFF34F8FBFF36F8FFEE7BFF30B
:103180004F8FBFF36F8FFEE79C000020074C206835
:10319000016841B1C0680021D0F80000FFF72EFFA0
:1031A000FFF7C6FEF3E701210020F7E76C000020DF
:1031B0002DE9F041044600F00BF994F9455004F173
:1031C000240609E0606A48B1304600F0B7FE08B155
:1031D00000F000FA6D1E6DB2002DF3DC4FF0FF36EB
:1031E00084F8456000F014F900F0F2F894F94450C6
:1031F00004F1100709E0206948B1384600F09EFE4E
:1032000008B100F0E7F96D1E6DB2002DF3DC84F813
:103210004460BDE8F04100F0FBB800002DE9F0414A
:103220000546002700F054FA314E306808B9FFF720
:103230006DFDF06805424BD1C5B3083568070ED067
:1032400005F00700C0F108000544680707D05020CA
:1032500080F31188BFF34F8FBFF36F8FFEE72DB35D
:103260007068854234D82248103001460C6801E06D
:1032700020460C466168A94202D221680029F7D194
:1032800031688C4224D00768216801606068083783
:10329000411B10290FD96019420708D0502080F334
:1032A0001188BFF34F8FBFF36F8FFEE710E04160CF
:1032B0006560FFF7EDFD61687068401A7060B26884
:1032C000904200D2B060F06801430020C4E90001E0
:1032D00000F06CFE780707D0502080F31188BFF310
:1032E0004F8FBFF36F8FFEE73846BDE8F0810000D7
:1032F0008400002010B5031F4FF080741C601B1F5A
:1033000021F001011960191F024B0B60143940387C
:103310000A6010BD65310008D0E9013201699A6088
:10332000D0E901235A604A68824201D182684A602A
:10333000002202610868401E0860086870470000AB
:10334000034B036003F15C0008608020106070474D
:103350005C080020044B036003F15C0008604FF43C
:103360008070106070470000B80A002000F108016A
:103370004FF0FF32C0E90112C1600161002101601C
:10338000704700210161704730B50B685A1C02D0AC
:1033900000F1080202E0026904E022465468256850
:1033A0009D42FAD953684B6099608A605160086108
:1033B0000168491C016030BD42684A6093688B60B7
:1033C00093685960916008610168491C0160704709
:1033D000502080F31188BFF34F8FBFF36F8F0A49DE
:1033E0004868401C486001280CD10848006810F06B
:1033F000FF0F07D0502080F31188BFF34F8FBFF32A
:103400006F8FFEE7704700009C00002004ED00E095
:103410000849486828B1401E486001D180F31188EE
:103420007047502080F31188BFF34F8FBFF36F8F29
:10343000FEE700009C00002070B5002827D0144D46
:10344000A0F108046168E868014207D1502080F3C8
:103450001188BFF34F8FBFF36F8FFEE722683AB139
:10346000502080F31188BFF34F8FBFF36F8FFEE7BB
:103470008143616000F02CF9606869680844686005
:103480002046FFF705FDBDE8704000F08FBD70BD20
:10349000840000204FF0E020002101618161054996
:1034A0004FF47A720968B1FBF2F1491E41610721BC
:1034B000016170472C00002010B5FCF769FE11492E
:1034C00010280ED300F1E02090F8F0030A78904223
:1034D00007D2502080F31188BFF34F8FBFF36F8F57
:1034E000FEE709480068896800F4E060884207D96F
:1034F000502080F31188BFF34F8FBFF36F8FFEE72B
:1035000010BD00009C0000200CED00E010B5084B41
:10351000002200BF53F832401CB1521C082AF9D3D4
:1035200010BD43F8321003EBC201486010BD00002B
:103530004002002070B515460E460446FFF748FFCE
:1035400094F944100020491C01D184F8440094F9F6
:103550004510491C01D184F84500FFF759FFA06BC5
:1035600028B92A46314604F1240000F051F82046DB
:10357000BDE87040FFF71CBE10B5020014D00F4824
:10358000806B38B1502080F31188BFF34F8FBFF3A9
:103590006F8FFEE700F09CF800211046FFF790FACD
:1035A00000F004FD002807D105494FF08050086065
:1035B000BFF34F8FBFF36F8F10BD000030000020AE
:1035C00004ED00E002498A6A02604969416070477F
:1035D000300000200149012048627047300000207F
:1035E00010B50C4650B1094909681831FFF7CCFEF7
:1035F0002046BDE810400121FFF762BA502080F359
:103600001188BFF34F8FBFF36F8FFEE730000020AC
:1036100070B514460D4668B10A4909681831FFF7BC
:10362000CBFE0CB14FF0FF3521462846BDE8704077
:10363000FFF746BA502080F31188BFF34F8FBFF3D6
:103640006F8FFEE73000002030B587B00024039470
:1036500005AA04A903A80494FFF772FEDDE903019B
:103660000094CDE90110002315A11748059A00F038
:1036700082FB164D002868631FD000F0F9FC01287A
:1036800009D0401C19D1502080F31188BFF34F8F0F
:10369000BFF36F8FFEE7502080F31188BFF34F8F89
:1036A000BFF36F8F4FF0FF3028630120E8616C613A
:1036B00007B0BDE8304000F045B807B030BD0000AD
:1036C00049444C4500000000592D000830000020FE
:1036D0000248816B491C8163704700003000002064
:1036E000164810B5816B11B10121416210BD002156
:1036F00041628169124A01E0B9B1491E01EB8103BF
:1037000052F82330002BF7D001EB810302EB830248
:1037100002F1080453685B685360A34201D15B68FF
:103720005360DA680260816110BD502080F3118817
:10373000BFF34F8FBFF36F8FFEE700003000002014
:10374000800200201CB5264908780190FF200870EF
:1037500008788DF800009DF800009DF8002000F02A
:10376000F000904207D0502080F31188BFF34F8FB4
:10377000BFF36F8FFEE79DF800001A4B00F050007A
:1037800018700720986005E09DF8002052008DF821
:103790000020401E9DF800201206F5D498600328F2
:1037A00007D0502080F31188BFF34F8FBFF36F8F86
:1037B000FEE74FF440709860019808700A4801686D
:1037C00041F470010160016841F070410160FFF750
:1037D00061FE00205860FCF7A5FC00201CBD000025
:1037E00000E400E09C00002020ED00E010B502465F
:1037F0000021012000F012F80446FFF7DDFA204610
:1038000010BD38B50B46002200901146012000F093
:1038100029F80446FFF7D0FA204638BDF8B5174618
:103820000E46050014D0DEB105FB06F05030FFF760
:10383000F5FC04000AD0002084F8460004F1500290
:103840003B46314628460094FFF7C2FA2046F8BDB1
:10385000502080F31188BFF34F8FBFF36F8FFEE7C7
:103860000020E3E738B5049D18B153B1CAB181B166
:1038700020E0502080F31188BFF34F8FBFF36F8F8C
:10388000FEE7502080F31188BFF34F8FBFF36F8F97
:10389000FEE7502080F31188BFF34F8FBFF36F8F87
:1038A000FEE739B1502080F31188BFF34F8FBFF38B
:1038B0006F8FFEE750241C46012384F846302B46C8
:1038C0000094FFF785FA204638BD000070B50D461C
:1038D000040025D0FFF77CFDD4E90F20216802FB0E
:1038E000001161600021A1632168A1600A46D4E94A
:1038F0000F01401E00FB0121E16021464FF0FF3027
:1039000001F8440F487004F110008DB1FFF72EFD4F
:1039100004F12400FFF72AFDFFF77AFD012070BDB6
:10392000502080F31188BFF34F8FBFF36F8FFEE7F6
:1039300021690029F0D000F001FB0028ECD00449F7
:103940004FF080500860BFF34F8FBFF36F8FE3E7F6
:1039500004ED00E02DE9FF4782B01D468A464FF096
:103960000008040003D0BAF1000F08D011E0502085
:1039700080F31188BFF34F8FBFF36F8FFEE7206C8A
:1039800038B1502080F31188BFF34F8FBFF36F8F92
:10399000FEE7022D0AD1E06B012807D0502080F30A
:1039A0001188BFF34F8FBFF36F8FFEE700F00EFA61
:1039B0003F4F4FF000094FF0805648B9049838B196
:1039C000502080F31188BFF34F8FBFF36F8FFEE756
:1039D000FFF7FEFCA06BE16B884207D3022D05D0F8
:1039E0000498D0B1B8F1000F1AD01EE02A46514613
:1039F0002046FFF73AF9616A19B104F1240000F09A
:103A00009DFA20B13E60BFF34F8FBFF36F8FFFF77A
:103A1000FFFC012006B0BDE8F087FFF7F9FC22E0CB
:103A20006846FFF7CFFD4FF00108FFF7F1FCFFF705
:103A30004FFEFFF7CDFC94F94400401C01D184F8FF
:103A4000449094F94500401C01D184F84590FFF75B
:103A5000DFFC04A9684600F027F930B12046FFF7E3
:103A6000A7FB00F0A3FA0020D4E7FFF7B1FCA06B9E
:103A7000E16B884213D1FFF7CBFC04F110000499ED
:103A8000FFF7AEFD2046FFF793FB00F08FFA00280A
:103A90009ED13E60BFF34F8FBFF36F8F98E7FFF764
:103AA000B7FC2046FFF784FB00F080FA90E70000A7
:103AB00004ED00E02DE9F0471F46904689460400DA
:103AC00003D0B9F1000F08D011E0502080F3118825
:103AD000BFF34F8FBFF36F8FFEE7206C38B15020DC
:103AE00080F31188BFF34F8FBFF36F8FFEE7022F74
:103AF0000AD1E06B012807D0502080F31188BFF372
:103B00004F8FBFF36F8FFEE7FFF7D6FC5020EFF328
:103B1000118680F31188BFF34F8FBFF36F8FA06BB7
:103B2000E16B884206D3022F04D0002086F311886F
:103B3000BDE8F08794F945503A4649462046FFF7DC
:103B400094F8681C04D06D1C84F845500120EDE702
:103B5000606A0028FAD004F1240000F0EFF9002890
:103B6000F4D0B8F1000FF1D00121C8F80010EDE752
:103B70002DE9F747002683B08A46040003D0BAF146
:103B8000000F08D011E0502080F31188BFF34F8F51
:103B9000BFF36F8FFEE7206C38B1502080F311889F
:103BA000BFF34F8FBFF36F8FFEE700F00FF9DFF821
:103BB000F4804FF000094FF0805748B9059838B1AC
:103BC000502080F31188BFF34F8FBFF36F8FFEE754
:103BD000FFF7FEFBA56BC5B151462046FFF732F853
:103BE0006D1EA563206950B104F1100000F0A6F924
:103BF00028B1C8F80070BFF34F8FBFF36F8FFFF786
:103C000007FC012006B0BDE8F087059808B11EB199
:103C100006E0FFF7FDFB27E06846FFF7D3FC01262F
:103C2000FFF7F6FBFFF754FDFFF7D2FB94F94400D2
:103C3000401C01D184F8449094F94500401C01D106
:103C400084F84590FFF7E4FB05A9684600F02CF8DE
:103C5000002820460AD0FFF7ABFA00F0A7F920466B
:103C6000FFF758F90028B3D00020CBE7FFF752F94F
:103C700090B104F124000599FFF7B2FC2046FFF74C
:103C800097FA00F093F90028A2D1C8F80070BFF3AA
:103C90004F8FBFF36F8F9BE72046FFF789FA00F045
:103CA00085F995E704ED00E02DE9F0410C460500AB
:103CB00011D0C4B1FFF78CFB174B5A696E682068AE
:103CC000911B471C17D02F689B6A9F4219D09642C0
:103CD00017D8012410E0502080F31188BFF34F8FD4
:103CE000BFF36F8FFEE7502080F31188BFF34F8F33
:103CF000BFF36F8FFEE70024FFF78AFB2046BDE885
:103D0000F081884205D9401A20602846FFF75AFC06
:103D1000F1E700202060DCE7300000202DE9FF5FA4
:103D20008346DDE90E87994616468A469000FFF7DE
:103D300075FA05001CD05C20FFF770FA040014D05F
:103D40000020256384F85900CDE90240CDE90087C1
:103D50004B46324651465846FFF74BF82046FEF791
:103D6000DDFE012004B0BDE8F09F2846FFF764FBAC
:103D70004FF0FF30F6E7F0B585B0DDE90B640A9D42
:103D8000A6B1DCB15C2700972663022684F859604F
:103D9000002604AFCDE90246CDE90057FFF729F828
:103DA0002046FEF7BBFE049805B0F0BD502080F31E
:103DB0001188BFF34F8FBFF36F8FFEE7502080F362
:103DC0001188BFF34F8FBFF36F8FFEE70548C169BE
:103DD00019B1806B18B10020704701207047022094
:103DE0007047000030000020014840697047000023
:103DF000300000202DE9F0412E4C0027A06B40B18F
:103E0000206A401C2062606A00B101273846BDE884
:103E1000F0816669761C666113D16068006838B10C
:103E2000502080F31188BFF34F8FBFF36F8FFEE7F1
:103E30006068A1686160A060A06A401CA062FFF792
:103E400037F9206BDFF87080864209D3606800681C
:103E500080B16068C068C568686886420DD220631A
:103E60002068C06A00EB800158F821000128CAD9F7
:103E70000127C8E74FF0FF30F1E7281DFFF74CFAA4
:103E8000A86A18B105F11800FFF746FAE86AA169B7
:103E9000884200D9A06100EB800108EB8100291D58
:103EA000FFF78AFAE86A2168C96A8842CED30127F7
:103EB000CCE70000300000208002002070B5040034
:103EC0004FF0000133D01B4D2868844207D05020AA
:103ED00080F31188BFF34F8FBFF36F8FFEE7206D24
:103EE00038B1401E2065E36CE26A9A421FD040B1AF
:103EF0001DE0502080F31188BFF34F8FBFF36F8F09
:103F0000FEE7201DFFF708FAE06CE062C0F1380020
:103F1000A061E06AA969884200D9A861064900EB5E
:103F2000800001EB8000211DFFF746FA01210846C1
:103F300070BD0000300000208002002070B5C06815
:103F4000C46854B104F118000646FFF7E5F9144DB2
:103F5000A86B50B13146134815E0502080F311880A
:103F6000BFF34F8FBFF36F8FFEE7201DFFF7D4F92C
:103F7000E06AA969884200D9A8610B4900EB80007A
:103F800001EB8000211DFFF717FAE06A2968C96A72
:103F9000884202D90120686270BD002070BD000017
:103FA0003000002008070020800200202DE9F047A3
:103FB0002C4D00242746A86B38B1FFF709FAA86BEF
:103FC000401EA863A86B40B146E0502080F31188E2
:103FD000BFF34F8FBFF36F8FFEE72969224E012099
:103FE000D1B3A6F5916980463068E0B1F068C46845
:103FF00004F11800FFF790F9201DFFF78DF9E06A32
:10400000A969884200D9A86100EB800109EB810011
:10401000211DFFF7D1F9E06A2968C96A8842E3D314
:10402000C5F82480E0E70CB1FFF742F82C6A4CB1E8
:104030004FEA0806FFF7DEFE00B16E62641EF9D19A
:1040400000202862686A38B10849012738070860EB
:10405000BFF34F8FBFF36F8FFFF7DAF93846BDE834
:10406000F0870000300000200807002004ED00E089
:1040700010B586B0FEF7BAFD114CA068B8B10020AB
:104080000390049005AA04A903A8FFF763F9DDE9EA
:10409000032102208DE8070000230AA10B48059A9E
:1040A000FFF769FEE06010B106B0012010BD50209E
:1040B00080F31188BFF34F8FBFF36F8FFEE70000CF
:1040C0006C000020546D7220537663008D3100081F
:1040D0002DE9FF411E46134602000A9D4FF00000E5
:1040E00016D0144CA768002F0FD0CDE90013029210
:1040F000062917DAFFF76AFE02284FF000030FD0F7
:1041000000226946A068FFF725FC04B0BDE8F081F5
:10411000502080F31188BFF34F8FBFF36F8FFEE7FE
:104120002A46EEE70023324669463846FFF7C2FCCE
:10413000EBE700006C0000202042000800000000B7
:10414000000000000000000000000000000200006D
:10415000180000000000000000000000FC41000802
:10416000000000000000000000000000000000004F
:104170000002000008000000000000000000000035
:1041800008420008000000000000000000000000DD
:104190000000000000020000080000000000000015
:1041A00000000000144200080000000000000000B1
:1041B00000000000000000000002000008000000F5
:1041C0000000000000000000F041000800000000B6
:1041D00000000000000000000000000000000000DF
:1041E000010203040607080900000000010203049D
:1041F0006D794D7574657830310000006D795461CA
:10420000736B3032000000006D795461736B303392
:10421000000000006D795461736B303400000000C1
:1042200064656661756C745461736B004C42000880
:1042300000000020A800000024270008F442000825
:10424000A8000020701E0000342700084E4E000019
:10425000000000000000000000000000000000005E
:10426000000000000000000000000000010000004D
:1042700010000000000000000024F4000000000016
:10428000000000000000000000000000000000002E
:10429000000000000000000000000000000000001E
:1042A000000000000000000000000000000000000E
:1042B00000000000000000000000000000000000FE
:1042C00000000000000000000000000000000000EE
:1042D00000000000000000000000000000000000DE
:1042E000000000000000000000000000AAAAAAAA26
:0442F00000000000CA
:04000005080000ED02
:00000001FF
